:020000040000FA
:1000000028020020F100000017010000D5000000C8
:1000100000000000000000000000000000000000E0
:100020000000000000000000000000001B010000B4
:1000300000000000000000001D0100001F01000082
:100040002101000021010000210100002101000028
:100050002101000021010000210100002101000018
:10006000210100001D070000210100002101000006
:1000700039070000210100002101000021010000DA
:1000800021010000210100002101000021010000E8
:1000900021010000210100002101000021010000D8
:1000A00021010000210100002101000021010000C8
:1000B00021010000210100002101000021010000B8
:1000C0000348854600F09AF80048004719100000E0
:1000D0002802002004207146084202D0EFF3098074
:1000E00001E0EFF308807146004A10478D040000DC
:1000F0000C480D4901600D4901600D4901600D4A30
:100100000D4911600D4A0E491160002101600D4832
:1001100080470D480047FEE7FEE7FEE7FEE7FEE703
:10012000FEE700000001004059000000160000003A
:100130008800000024000040A55A00008002004012
:100140000100000001060000C100000030B50B46B0
:10015000014600202022012409E00D46D5409D42A1
:1001600005D31D469540491B254695404019154627
:10017000521E002DF1DC30BD03460B439B0703D01C
:1001800009E008C9121F08C0042AFAD203E00B785C
:100190000370401C491C521EF9D27047F0B51FB4C1
:1001A0000646002082B005464024019100901BE0E5
:1001B000019922460F46304600F042F8049A059B0A
:1001C000801A994110D310461946224600F028F8AB
:1001D000361A8F410197224601200021009F00F02E
:1001E0001FF838184D4100902046641E0028DFDCBF
:1001F000019B00982946324607B0F0BD064C012508
:10020000064E05E0E36807CC2B430C3C98471034BE
:10021000B442F7D3FFF758FF5C1200007C120000D5
:1002200010B5202A04DB0146203A9140002010BD81
:10023000914020239C1A0346E3401943904010BD8F
:1002400010B5202A04DB0846203AD040002110BD1A
:100250000B46D340D0402024A21A914008431946AF
:1002600010BD00000EB509490EC900910192810F21
:100270008A00029369468A58054951184A68C3069C
:10028000DB0E0120984002434A600EBDF0110000D1
:100290000002004002490A6802430A6070470000F9
:1002A0000002004010B500F061F90148006810BD7F
:1002B0000000002002480068C00700D001487047D5
:1002C000000200400048E80104480068800702D5A9
:1002D0000120C0037047002070470000000200406A
:1002E00010B500F043F90448406B41070348490F3B
:1002F0000068C84010BD000000020040000000205F
:1003000010B500F033F90448406B4006410F034834
:100310000068C84010BD000000020040000000203E
:1003200008B511A000681149009009680020052255
:100330001204114216D1080301D50D4800E00D4802
:100340008A030FD40A04920F6B469B5CCA0589048A
:10035000D20DC90E891C8008921C59435043FFF7E7
:10036000F5FE800008BD00000102020440020040CA
:10037000001BB7000048E801F3B5124881B00569D9
:100380000F4610200F4C0540403C206804263043A7
:100390002060102000F050F82069072108432061F8
:1003A000206A0009000138432062206988430199CE
:1003B0000843206100F0DAF8002D02D12068B04334
:1003C0002060FEBD40020040F0B5194B88B0F0CB74
:1003D000009401ACE0C478CB04AF78C7840A23064C
:1003E0001B0E0ED003039B0F9B0004ADEB58114D69
:1003F0005B19E5B28405E40EA5401C68AC431443C8
:100400001C60420E520710D08200920F92006B4681
:100410009A58084B103BD21803015B0FC001C00E65
:100420008340106898430843106008B0F0BD000096
:10043000D01100002002004010B504460749084BC7
:1004400005E00A46491E002A01DC002010BD1A6999
:1004500020469043F5D1012010BD000080F520001A
:1004600040020040F0B5002301273C469C400C426E
:1004700008D005685C000326A640B5431646A64092
:10048000354305605B1C102BEFD3F0BD044603A081
:1004900000F0B6FA204600F0D7FDFEE7496E20488E
:1004A000617264204661756C742048616E646C658D
:1004B000720A000070B559201A4C1622882120605B
:1004C000226021602368002BF9D00420FFF7E2FEB0
:1004D0001020FFF7B1FF00210720FFF74DFF124D5D
:1004E0002846FFF7BFFE0121002289062846FFF7B4
:1004F0006BFF0E4D2846FFF7B5FE01210022490390
:100500002846FFF761FF00F031F801208007C16B3A
:10051000FF2212049143332252048918C163002040
:10052000206070BD00010040103D805F0300C05E90
:100530000121020E890751188B6801228240134362
:100540008B608868904388607047000006498A691C
:100550001202FCD408600A2804D188690002FCD485
:100560000D2008607047000000000740F8B51D4DE1
:1005700028691C4944071CA000680090640F0020F3
:100580004031096805221204114216D1080301D531
:10059000164800E016488A030FD40A04920F6B46EF
:1005A0009B5CCA058904D20DC90E891C8008921C67
:1005B00059435043FFF7CAFD80000E4E022CB06035
:1005C00002D00D49A0000858296A0907090F491CE3
:1005D000FFF7BCFD094930604A108018FFF7B6FDEF
:1005E0007060F8BD0002004001020204001BB70069
:1005F0000048E801000000206811000040420F00A0
:1006000010B559210A481623882201600360026050
:100610000468002CF9D007490B68072212059343A0
:100620000B600B6813430B600021016010BD0000DC
:10063000000100400002004010B50A4C7D2201215B
:10064000D200C906204600F049F820682106084378
:100650002060081504490860206889050843206067
:1006600010BD00002000054000E100E010B588B09A
:100670000446202215496846FFF77EFD144B144AB4
:1006800014482033944202D14069000A0BE09C4296
:1006900002D14069000B06E00F4940698C4201D14C
:1006A000000C00E0000D4107490F022904D088002A
:1006B0006946085808B010BD944201D09C4202D14E
:1006C000FFF70EFEF6E7FFF71BFEF3E70812000048
:1006D000000005400002004000100540F7B5174635
:1006E0000646FFF7C3FF054600244008B84201D87C
:1006F000022008E039462846FFF728FD040E02D004
:10070000611CFFF723FD0199214331607060641C77
:10071000604301462846FFF719FDFEBD10B50548A8
:100720008168C907C90F03D00121816000F0E0FC96
:1007300010BD00002000054010B50B4CE0691121F0
:100740000902084202D104E000F032F9A16949042B
:10075000FAD5A16920467122114203D009218902EC
:1007600000F08CF810BD00000000074010B51E48D6
:10077000FFF7DEFE1D4CE1214902204600F09AF809
:100780001421204600F008F9A06810218843A060D9
:10079000A06820210843A060606815490843606094
:1007A0000120144900030860FFF77CFD014612A0F8
:1007B00000F026F9FFF77EFD014616A000F020F9B3
:1007C000FFF782FD014619A000F01AF9FFF788FD36
:1007D00001461CA000F014F9FFF792FD014620A08D
:1007E00000F00EF910BD00001000000400000740EA
:1007F0001108000000E100E00D0A434C4B5F476523
:100800007443505546726571203A202538640D0AAC
:1008100000000000434C4B5F4765744858544672D3
:100820006571203A202538640D0A0000434C4B5F67
:100830004765744C585446726571203A20253864D7
:100840000D0A0000434C4B5F47657450434C4B30DE
:1008500046726571203A202538640D0A00000000B8
:10086000434C4B5F47657450434C4B314672657146
:10087000203A202538640D0A00000000CA0102D584
:1008800001221204C2614A0503D570228261082246
:1008900082610A0503D5426901231A4342618A0431
:1008A00001D5034A8261490401D51F214164704783
:1008B00001000001F0B587B00F46044600252E4622
:1008C00018222E496846FFF757FC2D492D482E4A1D
:1008D0008C4205D14369006A5B015D0F000A0FE09D
:1008E0002A4B9C4206D14369006A5B005D0F0004FD
:1008F000060F07E0944205D1C369006B5B015D0FF1
:100900000607360F002020630320E060A068204B1C
:100910001840A060012D02D0042D04D00DE0FFF797
:10092000FFFC019009E08C4201D0944202D1FFF714
:10093000D7FC01E0FFF7E4FC0490002F1BD0A900D6
:1009400068464058711CFFF701FC054679084018BD
:100950003946FFF7FBFB0F49801E884207D9F90093
:1009600068183946FFF7F2FB0009801E02E00321F8
:1009700009070843606207B0F0BD0000881100005D
:100980000000074000020040002007400010074020
:100990000FFFF0FFFFFF0000026A120A12020A4373
:1009A000026241680122D202114341607047000097
:1009B00010B50B480068C0B2782807D0582805D079
:1009C0007F2802D907A000F01BF810BDBFF34F8F9E
:1009D0000A490948C860BFF34F8F00BFFDE7000018
:1009E00000000740696E76616C696420636F6D6D0D
:1009F000616E640D0A0000000400FA0500ED00E0DD
:100A00000FB410B503A9044B044A029800F018F87B
:100A100010BC08BC04B01847B50E00000C00002044
:100A200002E008C8121F08C1002AFAD170477047B7
:100A3000002001E001C1121F002AFBD17047000015
:100A4000FFB591B00F460546002606E025280AD0DE
:100A5000149A139990476D1C761C28780028F5D1BC
:100A6000304615B0F0BD002400940121F34A0294F1
:100A700000E004436D1C2B780846203B9840104250
:100A8000F7D128782A280ED0022128780246303A59
:100A9000092A15D8009A0A235A43303A80180C4381
:100AA0006D1C0090F1E701CF0090002805DA0120CD
:100AB00040030443009840420090022004436D1C10
:100AC00028782E2815D10420044368786D1C2A2824
:100AD0000AD101CF6D1C02900BE002990A2251430A
:100AE000303940186D1C02902878014630390929A8
:100AF000F3D928786C2810D006DC4C281AD0682846
:100B00000ED06A2817D104E0742813D07A2812D1A5
:100B100010E00120400504430CE00121090501E03B
:100B2000032109050C436978814203D101200005A6
:100B300024186D1C6D1C287803906E281ED00CDCC8
:100B4000632831D004DC00288AD0582811D1B2E0C3
:100B500064287BD069280CD178E073282DD004DC80
:100B60006F2870D0702804D1A7E075286CD0782841
:100B70006BD0149A13999047761C62E06002400F84
:100B8000022807D003280AD0042838680AD0066053
:100B90003F1D56E03868F11706604160F8E7386895
:100BA0000680F5E70670F3E7387869460874002098
:100BB000487404A80390012003E0386803900020E3
:100BC000C0433F1D61070FD5002101E00199491C79
:100BD000029A0191914213DA8142F7DB019A03995B
:100BE000895C0029F2D10BE0002101E00199491C48
:100BF00001918142FADB019A0399895C0029F5D1C0
:100C000001990098139A401A00902146149B00F015
:100C10003BF901998019461807E003980399007879
:100C2000491C0391149A139990470198401E019012
:100C3000401CF2D12146149B139A009800F014F93D
:100C400086196D1C09E741E033E034E00A200021F9
:100C5000049005916002410F022905D001CFC2170F
:100C60009446032905D007E0FF1DFF08FF0003CFCE
:100C700006E000B2C2179446042902D140B2C1175F
:100C80008C4600226146944506DA0A46002140421D
:100C900091418C462D2102E0210504D52B216A4685
:100CA0001176012103E0E10701D02021F7E701914E
:100CB00054E00A200BE0102009E0102004900021ED
:100CC0000420044308200591029003E0082000213D
:100CD000059104906002410F022905D001CF002246
:100CE0009446032906D006E0FF1DFF08FF0003CF4E
:100CF0008C4603E080B2042900D1C0B200210191EA
:100D000021072BD50399702906D0049A1021059B41
:100D10004A401A4305D00EE040216A46117601216F
:100D200008E06146014306D030216A4611760399F6
:100D3000517602210191049A0821059B4A401A43E9
:100D40000CD16146014301D1610707D530216A46C4
:100D50001176012101910299491E029103995829A6
:100D600004D037A103910FA90F910DE039A1F9E744
:100D70006146059B049AFFF711FA039B8C469B5C26
:100D80000F9A521E0F92137061460143F0D10F98D3
:100D900007A9081A20300390600704D50120000439
:100DA0008443029801E0012002900399884201DD0A
:100DB000401A00E00020411802900198091800989C
:100DC000401A0090E00306D42146149B139A009821
:100DD00000F05AF886190020049008E006A9085C83
:100DE000149A139990470498401C761C049001991A
:100DF0008842F3DBE0030CD52146149B139A00983C
:100E000000F042F8861904E0149A302013999047B4
:100E1000761C0299481E02900029F5DC08E00F9824
:100E20000F990078491C0F91149A13999047761CDA
:100E30000399481E03900029F1DCFBE60928010014
:100E40003031323334353637383961626364656640
:100E50000000000030313233343536373839414202
:100E60004344454600000000F8B5044600251E46F0
:100E70001746880404D405E039462020B0476D1C8D
:100E8000641EF9D52846F8BDFFB50446002581B09B
:100E90001E46C80301D5302700E02027880404D56A
:100EA00005E038460399B0476D1C641EF9D5284605
:100EB00005B0F0BD10B50446FFF748FB204610BD55
:100EC00010B50B490878C20610D5EF221040087003
:100ED0008888421C8A800A2808D101208880CA8814
:100EE000501CC880034904A0FFF78AFD10BD000014
:100EF00010000020281200002573203A20253464B9
:100F00000D0A000010B50B490878420710D5FB22E6
:100F1000104008708889421C8A81642808D1012009
:100F20008881CA89501CC881034904A0FFF768FD65
:100F300010BD0000100000203D1200002573203A73
:100F4000202534640D0A000010B50C490878C2074A
:100F500012D0400840000870888A421C8A827D2294
:100F6000D200904208D101208882CA8A501CC882CF
:100F7000034904A0FFF744FD10BD0000100000204D
:100F8000501200002573203A202534640D0A000019
:100F900010B50B490878020710D5F72210400870E9
:100FA0000889421C0A81142808D1012008814A8935
:100FB000501C4881034904A0FFF722FD10BD00002A
:100FC00010000020331200002573203A20253464DD
:100FD0000D0A000010B50B490878820710D5FD22D4
:100FE00010400870088A421C0A82C82808D10120D3
:100FF00008824A8A501C4882034904A0FFF700FD7A
:1010000010BD000010000020471200002573203A98
:10101000202534640D0A0000FFF74CFAFFF7A6FB09
:10102000FFF70AFB012291030648FFF71BFAFFF7BF
:101030008BFFFFF7CFFFFFF765FFFFF7A9FFFFF774
:101040003FFFF4E74040004010B50446016810A09F
:10105000FFF7D6FC11A06168FFF7D2FC12A0A168CF
:10106000FFF7CEFC13A0E168FFF7CAFC14A02169CA
:10107000FFF7C6FC15A06169FFF7C2FC16A0A169C5
:10108000FFF7BEFC17A0E169FFF7BAFC10BD000036
:10109000723020203D20307825780A0072312020DF
:1010A0003D20307825780A00723220203D203078AB
:1010B00025780A00723320203D20307825780A00F8
:1010C000723132203D20307825780A006C72202061
:1010D0003D20307825780A00706320203D2030784C
:1010E00025780A00707372203D20307825780A0038
:1010F00070B51B4D01216888401C80B268802C7837
:1011000006460C432C700521FFF720F8002902D178
:10111000022004432C700A213046FFF717F80029FB
:1011200003D1287804210843287032213046FFF784
:101130000DF8002903D1287808210843287064217C
:101140003046FFF703F8002903D12878102108431F
:1011500028700448864201D30020688070BD0000DA
:1011600010000020DCFF00000048E80100800000C3
:1011700000D8B80500960000006CDC0200000000FA
:1011800000000000006CDC020048E80100000000E4
:1011900000800000006CDC020000000000960000EF
:1011A0000048E8010000000000800000006CDC0244
:1011B00000000000009600000048E8010000000068
:1011C00000800000006CDC020000000000960000BF
:1011D0000000000004000000080000000C000000F7
:1011E00000000000000000000000000010000000EF
:1011F00000000000040000000800000000000000E3
:1012000004000000080000000048E8010080000021
:101210000000000000000000000000000096000038
:1012200000000000006CDC026C6F6F705F313030CA
:101230006D73006C6F6F705F35306D73006C6F6F26
:10124000705F31306D73006C6F6F705F356D730060
:101250006C6F6F705F316D73000000007C120000D6
:101260000000002028000000200A0000A412000056
:101270002800002000020000300A000000D8B80555
:101280006000000000D8B805000000000000000069
:10129000010000000100000001000000010000004A
:0412A0000100000049
:04000005000000F106
:00000001FF
